:020000040800F2
:1000000000000320DD0500082D0600082D0600086D
:100010002D0600082D0600082D060008000000002F
:100020000000000000000000000000002D06000895
:100030002D060008000000002D0600082D0600080F
:100040002D0600082D0600082D0600082D060008C4
:100050002D0600082D0600082D0600082D060008B4
:100060002D0600082D0600082D0600082D060008A4
:100070002D0600082D0600082D0600082D06000894
:100080002D0600082D0600082D0600082D06000884
:100090002D0600082D0600082D0600082D06000874
:1000A0002D0600082D0600082D0600082D06000864
:1000B0002D0600082D0600082D0600082D06000854
:1000C0002D0600082D0600082D0600082D06000844
:1000D0002D0600082D0600082D0600082D06000834
:1000E0002D0600082D0600082D0600082D06000824
:1000F0002D0600082D0600082D0600082D06000814
:100100002D0600082D0600082D0600082D06000803
:100110002D0600082D0600082D0600082D060008F3
:100120002D0600082D0600082D0600082D060008E3
:100130002D0600082D0600082D0600082D060008D3
:100140002D0600082D0600082D0600082D060008C3
:100150002D0600082D0600082D0600082D060008B3
:100160002D0600082D0600082D0600082D060008A3
:100170002D0600082D0600082D06000800000000CE
:100180002D0600082D0600082D0600082D06000883
:100190002D0600082D0600082D0600082D06000873
:0C01A0002D0600082D0600082D060008A2
:1001AC0010B5054C237833B9044B13B10448AFF3A5
:1001BC0000800123237010BD04000020000000000B
:1001CC007806000808B5034B1BB103490348AFF38D
:1001DC00008008BD00000000080000207806000820
:1001EC00034AD2F8883043F47003C2F88830704761
:1001FC0000ED00E082B0019003E0054A1368013382
:10020C001360019B5A1E0192002BF6D102B070476D
:10021C0024000020114B124A9A61124B1B7803B92F
:10022C00704700228A4218D210B400EB020C0E4B1D
:10023C0083FB0C43A3EBEC7303EB4303ACEB030327
:10024C00DBB20A4C54F82340044B9C610132D2B20D
:10025C008A42EAD35DF8044B7047704700040240B1
:10026C000000814037000020565555559006000877
:10027C0010B4002303E0124A0024D4540133022B9F
:10028C00F9DD104B1B78C3B95DF8044B704700EBDC
:10029C00020C0D4B83FB0C43A3EBEC7303EB4303FE
:1002AC00ACEB0303DBB2064C4FF0010C04F803C0BB
:1002BC006244D2B28A42EAD3E6E70022FAE700BFF0
:1002CC0028000020370000205655555538B500F051
:1002DC0025F900F059F9804B804A9A61804B1878C7
:1002EC00804B1978FFF7C4FF00242546BDE07C49FC
:1002FC000A7801327C4B83FB020303EB4303D31AD2
:10030C00DBB20B7008780121FFF784FF774B0022DA
:10031C001A70D9E072490A780132734B83FB0203DD
:10032C0003EB4303D31ADBB20B7008780221FFF7FF
:10033C0071FF6E4B01221A70C6E06D4A1378B3FA46
:10034C0083F35B0913707BB1634B44F281029A61B6
:10035C00002303E0674A0121D1540B44022BF9DD41
:10036C00624B02221A70AFE05B4B5C4A9A6100232D
:10037C0003E0604A0021D1540133022BF9DDEFE791
:10038C0000255D4B1B6913F0400F50D1002C4FD151
:10039C005A4A13680133136052490B78DBB2584A3E
:1003AC00A2FB030202F0FE0000EB52029B1A013387
:1003BC00DBB20B7000234A4A1370524A13700B784D
:1003CC00DBB2012B0DD0474B1B78DBB2022B15D0C7
:1003DC00444B1B78DBB2032B06D1444B02221A7020
:1003EC0002E0424B00221A703E4B1B78DBB2032B0F
:1003FC0008D0394B394A9A61002314E03B4B012257
:10040C001A70F1E7344B354A9A61002303E0394AFC
:10041C000021D1540133022BF9DD012408E0354AC7
:10042C000021D1540133022BF9DD012400E000241A
:10043C002C4B1B78DBB2022B10D1324B1B786BB9D7
:10044C0003F1804303F50133244A9A61002303E04E
:10045C00284A0021D1540133022BF9DD2A4A1368B2
:10046C00013313602948FFF7C5FE234B1A69C2F309
:10047C00403227490A701A6912F0400F0CBF012153
:10048C000021244A11701B6913F4005F3FF478AF0C
:10049C00002D7FF476AF204A136801331360194B9B
:1004AC0001221A700F4B1B78DBB293423FF41FAF43
:1004BC000C4B1B78DBB2022B3FF42CAF094B1B7897
:1004CC00DBB2032B3FF439AF054B1878054B197889
:1004DC00FFF7CEFE012554E70004024000008140E6
:1004EC0038000020000000205655555534000020DF
:1004FC002000002028000020000802402C000020D2
:10050C00ABAAAAAA3700002024000020A086010074
:10051C00360000203500002030000020184AD2F8A8
:10052C00303843F00603C2F83038164BD3F80024A9
:10053C0042F48042C3F80024D3F8082442F48042E9
:10054C00C3F80824D3F8182442F40002C3F8182482
:10055C0003F500631A6822F440521A60DA6822F438
:10056C004052DA60DA6842F48052DA601A6822F09B
:10057C0040621A60DA6822F04062DA60704700BFAD
:10058C000030024000000240104B1A6842F08052CA
:10059C001A605A6822F480425A609A6842F080527B
:1005AC009A609A6942F080429A611A6842F001029C
:1005BC001A605A6822F001025A609A6842F00102ED
:1005CC009A609A6942F480329A6170470004024042
:1005DC00DFF834D00D480E490E4A002302E0D458FF
:1005EC00C4500433C4188C42F9D30B4A0B4C00236F
:1005FC0001E013600432A242FBD3FFF7F1FD00F0DF
:10060C0011F8FFF763FE7047000003200000002084
:10061C0004000020A4060008040000203C00002078
:10062C00FEE7000070B50D4D0D4C641BA4100026A8
:10063C00A64209D10B4D0C4C00F018F8641BA41009
:10064C000026A64205D170BD55F8043B98470136EB
:10065C00EEE755F8043B98470136F2E79C06000894
:10066C009C0600089C060008A0060008F8B500BF10
:10067C00F8BC08BC9E467047F8B500BFF8BC08BC77
:04068C009E467047CF
:0C0690000040000080000000010000009D
:04069C00D101000880
:0406A000AD010008A0
:0406A4000100000051
:04000005080005DD0D
:00000001FF
